:020000040800F2
:1000000000000120A5060008190600081F060008C8
:10001000250600082B060008310600080000000035
:10002000000000000000000000000000370600088B
:10003000450600080000000053060008610600089D
:10004000F5060008F5060008F5060008F5060008A4
:10005000F5060008F5060008F5060008F506000894
:10006000F5060008F5060008F5060008F506000884
:10007000F50600086D060008F5060008F5060008FC
:10008000F5060008F5060008F5060008F506000864
:10009000F5060008F5060008F5060008F506000854
:1000A000F5060008F5060008F5060008F506000844
:1000B000F50600080000000000000000F50600083A
:1000C000F50600080000000000000000F50600082A
:1000D00000000000F5060008F5060008000000001A
:1000E000F5060008F506000800000000000000000A
:1000F0000000000000000000000000000000000000
:10010000000000000000000000000000F5060008EC
:100110000000000000000000F5060008F5060008D9
:10012000F5060008F5060008F5060008F5060008C3
:10013000F5060008000000000000000000000000BC
:10014000F5060008F5060008F5060008F5060008A3
:10015000F5060008F5060008F5060008F506000893
:10016000F5060008F5060008F50600080000000086
:10017000F5060008F5060008000000000000000079
:0C018000F5060008F5060008F50600086A
:10018C0010B5054C237833B9044B13B10448AFF3C5
:10019C0000800123237010BD0C0000200000000023
:1001AC002C2A000808B5034B1BB103490348AFF3D5
:1001BC00008008BD00000000100000202C2A000860
:1001CC0080B500AF02F01EFB00F00DF800F0FAF85D
:1001DC0000F0DAF800F058F800F088F802F0AAFB0A
:1001EC0002F0CEFBFCE780B596B000AF07F114032C
:1001FC0044220021184602F00BFC3B4600221A60F8
:10020C005A609A60DA601A614FF4007001F0D2F90A
:10021C000346002B01D000F043F902237B614FF41D
:10022C0080733B6210237B620223FB6302233B64DB
:10023C0001237B641423BB640723FB6402233B650B
:10024C0006237B6507F11403184601F009FA0346EF
:10025C00002B01D000F024F90F233B6003237B60BB
:10026C000023BB600023FB6000233B613B46032162
:10027C00184601F009FE0346002B01D000F010F9DE
:10028C0000BF5837BD4680BD80B58AB000AF3B1D5E
:10029C0024220021184602F0BBFB124B124A1A60B2
:1002AC00104800F088FB0346002B01D000F0F8F852
:1002BC0000237B602423BB600023FB6000233B6195
:1002CC0000237B613B1D00221946064800F080FC90
:1002DC000346002B01D000F0E3F800BF2837BD46E1
:1002EC0080BD00BF280000200074004080B588B09D
:1002FC0000AF07F1100300221A605A609A60DA60AE
:10030C003B1D00221A605A609A601E4B4FF08042CF
:10031C001A601C4B00225A601A4B00229A60194B2F
:10032C004FF41C72DA60174B00221A61154B002235
:10033C009A61144801F0FAFF0346002B01D000F03B
:10034C00AFF84FF480533B6107F1100319460D4889
:10035C0002F090F80346002B01D000F0A1F8202306
:10036C007B600023FB603B1D1946064801F078FFBB
:10037C000346002B01D000F093F800BF2037BD4698
:10038C0080BD00BF8400002080B582B000AF0C4B54
:10039C009B6C0B4A43F001039364094B9B6C03F079
:1003AC0001037B607B68002200210D2000F079FAAC
:1003BC000D2000F092FA00BF0837BD4680BD00BF8B
:1003CC000010024080B588B000AF07F10C0300228A
:1003DC001A605A609A60DA601A612F4BDB6C2E4AF5
:1003EC0043F00403D3642C4BDB6C03F00403BB60BD
:1003FC00BB68294BDB6C284A43F00103D364264BC2
:10040C00DB6C03F001037B607B68234BDB6C224AC3
:10041C0043F00203D364204BDB6C03F002033B601C
:10042C003B68002208211D4801F084F80423FB607E
:10043C0002233B6100237B610323BB610723FB6128
:10044C0007F10C0319464FF0904000F009FF4FF4F0
:10045C000043FB6002233B6100237B610323BB61F0
:10046C000323FB6107F10C0319464FF0904000F099
:10047C00F7FE0823FB6001233B6100237B61002313
:10048C00BB6107F10C031946044800F0E9FE00BFFC
:10049C002037BD4680BD00BF00100240000400485C
:1004AC0080B400AF72B600BFFEE7000080B483B02A
:1004BC0000AF0F4B1B6E0E4A43F0010313660C4B3F
:1004CC001B6E03F001037B607B68094B9B6D084A34
:1004DC0043F080539365064B9B6D03F080533B6058
:1004EC003B6800BF0C37BD465DF8047B704700BF0E
:1004FC000010024080B58AB000AF786007F1140399
:10050C0000221A605A609A60DA601A617B681B6874
:10051C002B4A934250D12B4B9B6D2A4A43F00053EC
:10052C009365284B9B6D03F000533B613B69254B56
:10053C00DB6C244A43F00103D364224BDB6C03F0E5
:10054C000103FB60FB6810237B610323BB61002369
:10055C00FB6107F1140319464FF0904000F080FE48
:10056C00194B1A4A1A60184B06225A60164B102265
:10057C009A60154B0022DA60134B80221A61124BE1
:10058C004FF400725A61104B4FF400629A610E4B9B
:10059C002022DA610C4B4FF400521A620A4800F028
:1005AC0067FC0346002B01D0FFF77AFF7B68064AF5
:1005BC009A60054A7B68936200BF2837BD4680BDB0
:1005CC0000740040001002403C000020300002404B
:1005DC0080B485B000AF78607B681B68B3F1804F46
:1005EC000BD1094B9B6D084A43F001039365064BF5
:1005FC009B6D03F00103FB60FB6800BF1437BD4625
:10060C005DF8047B704700BF0010024080B400AF5F
:10061C00FEE780B400AFFEE780B400AFFEE780B425
:10062C0000AFFEE780B400AFFEE780B400AF00BFC0
:10063C00BD465DF8047B704780B400AF00BFBD467B
:10064C005DF8047B704780B400AF00BFBD465DF819
:10065C00047B704780B500AF02F028F900BF80BD65
:10066C0080B500AF024800F01BFD00BF80BD00BF8D
:10067C003C00002080B400AF064BD3F88830054A0C
:10068C0043F47003C2F8883000BFBD465DF8047BAC
:10069C00704700BF00ED00E0DFF834D0FFF7EAFF51
:1006AC000C480D490D4A002302E0D458C4500433C1
:1006BC00C4188C42F9D30A4A0A4C002301E0136097
:1006CC000432A242FBD302F071F9FFF779FDFEE789
:1006DC0000000120000000200C0000208C2C0008E1
:1006EC000C000020D4000020FEE7000080B485B090
:1006FC0000AF78607B6803F00703FB600C4BDB6892
:10070C00BB60BA684FF6FF031340BB60FB681A026C
:10071C00BB68134343F0BF6343F40033BB60044A2C
:10072C00BB68D36000BF1437BD465DF8047B7047CF
:10073C0000ED00E080B400AF044BDB681B0A03F053
:10074C0007031846BD465DF8047B704700ED00E0DA
:10075C0080B483B000AF0346FB7197F90730002BD0
:10076C000BDBFB7903F01F02074997F907305B0994
:10077C00012000FA02F241F8232000BF0C37BD46DD
:10078C005DF8047B704700BF00E100E080B483B0EB
:10079C0000AF03463960FB7197F90730002B0ADB79
:1007AC003B68DAB20C4997F907301201D2B20B440C
:1007BC0083F800230AE03B68DAB20849FB7903F0BE
:1007CC000F03043B1201D2B20B441A7600BF0C3754
:1007DC00BD465DF8047B704700E100E000ED00E0F1
:1007EC0080B489B000AFF860B9607A60FB6803F040
:1007FC000703FB61FB69C3F10703042B28BF042328
:10080C00BB61FB690433062B02D9FB69033B00E097
:10081C0000237B614FF0FF32BB6902FA03F3DA432A
:10082C00BB681A407B699A404FF0FF317B6901FA33
:10083C0003F3D9437B680B40134318462437BD465A
:10084C005DF8047B7047000080B582B000AF786023
:10085C007B68013BB3F1807F01D301230FE00A4A8F
:10086C007B68013B53600F214FF0FF30FFF78EFF89
:10087C00054B00229A60044B07221A60002318468D
:10088C000837BD4680BD00BF10E000E080B582B0E7
:10089C0000AF78607868FFF729FF00BF0837BD46C6
:1008AC0080BD80B586B000AF0346B9607A60FB733B
:1008BC0000237B61FFF73EFF78617A68B96878693D
:1008CC00FFF78EFF024697F90F3011461846FFF7D7
:1008DC005DFF00BF1837BD4680BD80B582B000AF4C
:1008EC000346FB7197F907301846FFF731FF00BF3D
:1008FC000837BD4680BD80B582B000AF786078689F
:10090C00FFF7A2FF034618460837BD4680BD80B4EA
:10091C0083B000AF786000BF0C37BD465DF8047B38
:10092C00704780B483B000AF786000BF0C37BD4611
:10093C005DF8047B704780B483B000AF786000BF73
:10094C000C37BD465DF8047B704780B584B000AFB2
:10095C0078607B689B6AFB60F868FFF7D8FFFB68E0
:10096C0001221A7100BF1037BD4680BD80B584B01E
:10097C0000AF78607B689B6AFB60F868FFF7D1FF7B
:10098C0000BF1037BD4680BD80B584B000AF786025
:10099C007B689B6AFB60FB681B6943F00402FB6885
:1009AC001A61F868FFF7C7FFFB6801221A7100BFD4
:1009BC001037BD4680BD80B582B000AF78607B68D3
:1009CC00002B01D1012314E07B681B79DBB2002BD7
:1009DC0005D17B6800225A717868FFF78BFD7B6824
:1009EC0002221A717B6800221A617B6801221A713B
:1009FC00002318460837BD4680BD000080B586B080
:100A0C0000AFF860B9607A603B6000233B61FB6823
:100A1C005B79012B01D10223ABE0FB6801225A71F7
:100A2C00FB6802221A71BB68002B2FD1FB689B68F4
:100A3C00524ADA62FB689B68514A1A63FB689B68EE
:100A4C00504A5A63FB681B681A68FB681B6842F4BF
:100A5C0080521A603B6A082B13D03B6A082B45D88E
:100A6C003B6A002B03D03B6A042B05D03EE0FB68AD
:100A7C001B6808333B613CE0FB681B680C333B6133
:100A8C0037E0FB681B6810333B6132E0FB68DB68C6
:100A9C003D4ADA62FB68DB683C4A1A63FB68DB6838
:100AAC003B4A5A63FB681B681A68FB681B6842F078
:100ABC0080521A603B6A082B13D03B6A082B17D85C
:100ACC003B6A002B03D03B6A042B05D010E0FB687B
:100ADC001B6814333B610CE0FB681B6818333B61EB
:100AEC0007E0FB681B681C333B6102E000BF00E0C1
:100AFC0000BFBB68002B11D1FB681B681A68FB6830
:100B0C001B6842F400521A60FB68986879683B686D
:100B1C003A6900F065FA0346FB7510E0FB681B6848
:100B2C001A68FB681B6842F000521A60FB68D868B0
:100B3C0079683B683A6900F053FA0346FB75FB6829
:100B4C0000225A71FB7D002B0CD1FB681B681968C5
:100B5C00BB6803F0100301229A40FB681B680A4330
:100B6C001A6005E0FB681B6943F00402FB681A611C
:100B7C00FB7D18461837BD4680BD00BF110E00081E
:100B8C00330E00084F0E00085709000879090008B9
:100B9C009509000880B483B000AF786000BF0C37B3
:100BAC00BD465DF8047B704780B483B000AF7860BD
:100BBC0000BF0C37BD465DF8047B704780B483B032
:100BCC0000AF786000BF0C37BD465DF8047B704702
:100BDC0080B588B000AFF860B9607A600023FB6123
:100BEC00FB685B79012B01D1022307E1FB68012231
:100BFC005A71FB6802221A71BB681B68042B74D1F2
:100C0C0001F068FEF8617B68002B34D111E001F033
:100C1C0061FE0246FB69D31A012B0AD9FB681B69DA
:100C2C0043F00802FB681A61FB6803221A71032364
:100C3C00E4E0FB681B685B6B03F40043002BE6D11C
:100C4C00012001F053FEFB681B68BA6892691A64B4
:100C5C001EE001F03FFE0246FB69D31A012B0AD9B4
:100C6C00FB681B6943F00802FB681A61FB680322EE
:100C7C001A710323C2E0FB681B685B6B002BE8DB7B
:100C8C00012001F033FEFB681B68BA6892695A6454
:100C9C00FB681B689A6C7B6803F0100340F2FF3111
:100CAC0001FA03F3DB4302EA0301BB68DA697B68F0
:100CBC0003F010039A40FB681B680A439A64FB68B4
:100CCC001B68DA6C7B6803F01003FF2101FA03F355
:100CDC00DB4302EA0301BB681A6A7B6803F010036A
:100CEC009A40FB681B680A43DA64BB681B69012BDA
:100CFC001DD1FB681B689B6BBB617B6803F0100309
:100D0C001F2202FA03F3DB43BA691340BB61BB68D1
:100D1C005B697B617B6803F010037A6902FA03F369
:100D2C00BA691343BB61FB681B68BA699A63FB68B9
:100D3C001B68DB6BBB617B6803F01003072202FAB4
:100D4C0003F3DB43BA691340BB61BB681A68BB6829
:100D5C009B681A43BB68DB6813437B617B6803F0B9
:100D6C0010037A6902FA03F3BA691343BB61FB6897
:100D7C001B68BA69DA63FB681B6819687B6803F047
:100D8C0010034FF4804202FA03F3DA43FB681B684A
:100D9C000A401A60FB681B681B68BB617B6803F028
:100DAC00100340F6FC7202FA03F3DB43BA691340FA
:100DBC00BB61BB685B687B617B6803F010037A697D
:100DCC0002FA03F3BA691343BB61FB681B68BA6987
:100DDC001A60FB681B6819687B6803F01003C0225B
:100DEC0002FA03F3DA43FB681B680A401A60FB68DB
:100DFC0001221A71FB6800225A7100231846203711
:100E0C00BD4680BD80B584B000AF78607B689B6ABE
:100E1C00FB60F868FFF7BEFEFB6801221A7100BF89
:100E2C001037BD4680BD80B584B000AF78607B685C
:100E3C009B6AFB60F868FFF7B7FE00BF1037BD4632
:100E4C0080BD80B584B000AF78607B689B6AFB6026
:100E5C00FB681B6943F00402FB681A61F868FFF732
:100E6C00ADFEFB6801221A7100BF1037BD4680BD74
:100E7C0080B485B000AF78607B68002B01D1012372
:100E8C0098E07B681B681A464D4B9A420FD87B68DA
:100E9C001B681A464B4B13444B4AA2FB03231B09FA
:100EAC009A007B685A647B68484A1A640EE07B6837
:100EBC001B681A46464B1344434AA2FB03231B09E7
:100ECC009A007B685A647B68424A1A647B680222E7
:100EDC0083F825207B681B681B68FB60FB6823F488
:100EEC00FF4323F07003FB607B689A687B68DB68C8
:100EFC001A437B681B691A437B685B691A437B68DE
:100F0C009B691A437B68DB691A437B681B6A134332
:100F1C00FA681343FB607B681B68FA681A607B688D
:100F2C009B68B3F5804F39D07B681B6C274A934282
:100F3C001AD1294B1A687B685B6C03F01C030F21D8
:100F4C0001FA03F3DB43244913400B60224B1A686C
:100F5C007B6859687B685B6C03F01C0301FA03F334
:100F6C001D4913430B6019E01C4B1A687B685B6CC2
:100F7C0003F01C030F2101FA03F3DB431749134061
:100F8C000B60164B1A687B6859687B685B6C03F0C6
:100F9C001C0301FA03F3114913430B607B68002215
:100FAC00DA637B68012283F825207B68002283F8B2
:100FBC002420002318461437BD465DF8047B704787
:100FCC0007040240F8FFFDBFCDCCCCCC00000240A2
:100FDC00F8FBFDBF00040240A8000240A804024038
:100FEC0080B586B000AFF860B9607A603B600023D2
:100FFC00FB75FB6893F82430012B01D102234BE0E5
:10100C00FB68012283F82420FB6893F82530DBB2BF
:10101C00012B3AD1FB68022283F82520FB680022C1
:10102C00DA63FB681B681A68FB681B6822F0010214
:10103C001A603B687A68B968F86800F0E0F8FB68F9
:10104C001B6B002B08D0FB681B681A68FB681B68BD
:10105C0042F00E021A600FE0FB681B681A68FB680E
:10106C001B6822F004021A60FB681B681A68FB6894
:10107C001B6842F00A021A60FB681B681A68FB685E
:10108C001B6842F001021A6005E0FB68002283F83D
:10109C0024200223FB75FB7D18461837BD4680BD06
:1010AC0080B584B000AF78607B681B6C1B68FB60FC
:1010BC007B681B681B68BB607B685B6C03F01C0364
:1010CC0004229A40FB681340002B26D0BB6803F027
:1010DC000403002B21D07B681B681B6803F02003E2
:1010EC00002B07D17B681B681A687B681B6822F091
:1010FC0004021A607B685B6C03F01C027B681B6C3F
:10110C00042101FA02F25A607B681B6B002B71D030
:10111C007B681B6B786898476CE07B685B6C03F0B2
:10112C001C0302229A40FB681340002B2ED0BB6894
:10113C0003F00203002B29D07B681B681B6803F0AB
:10114C002003002B0BD17B681B681A687B681B681B
:10115C0022F00A021A607B68012283F825207B6842
:10116C005B6C03F01C027B681B6C022101FA02F21F
:10117C005A607B68002283F824207B68DB6A002B92
:10118C0038D07B68DB6A7868984733E07B685B6CA7
:10119C0003F01C0308229A40FB681340002B2AD052
:1011AC00BB6803F00803002B25D07B681B681A680A
:1011BC007B681B6822F00E021A607B685B6C03F084
:1011CC001C027B681B6C012101FA02F25A607B68DD
:1011DC000122DA637B68012283F825207B680022D8
:1011EC0083F824207B685B6B002B04D07B685B6BE3
:1011FC007868984700BF00BF1037BD4680BD80B4EB
:10120C0085B000AFF860B9607A603B60FB685B6CDE
:10121C0003F01C02FB681B6C012101FA02F25A60FC
:10122C00FB681B683A685A60FB689B68102B08D1F6
:10123C00FB681B687A689A60FB681B68BA68DA609E
:10124C0007E0FB681B68BA689A60FB681B687A68E1
:10125C00DA6000BF1437BD465DF8047B70470000B0
:10126C0080B487B000AF7860396000237B6148E1BF
:10127C003B681A6801217B6901FA03F31340FB6098
:10128C00FB68002B00F03A813B685B6803F00303BA
:10129C00012B05D03B685B6803F00303022B30D1B4
:1012AC007B689B683B617B695B00032202FA03F35A
:1012BC00DB433A6913403B613B68DA687B695B004E
:1012CC0002FA03F33A6913433B617B683A699A600B
:1012DC007B685B683B6101227B6902FA03F3DB43A9
:1012EC003A6913403B613B685B681B0903F00102E0
:1012FC007B6902FA03F33A6913433B617B683A69F1
:10130C005A603B685B6803F00303032B17D07B68C0
:10131C00DB683B617B695B00032202FA03F3DB436E
:10132C003A6913403B613B689A687B695B0002FA3F
:10133C0003F33A6913433B617B683A69DA603B68B3
:10134C005B6803F00303022B23D17B69DA087B680B
:10135C00083253F822303B617B6903F007039B0092
:10136C000F2202FA03F3DB433A6913403B613B68FB
:10137C001A697B6903F007039B0002FA03F33A69CD
:10138C0013433B617B69DA087B680832396943F89F
:10139C0022107B681B683B617B695B00032202FAAD
:1013AC0003F3DB433A6913403B613B685B6803F032
:1013BC0003027B695B0002FA03F33A6913433B6156
:1013CC007B683A691A603B685B6803F44033002B16
:1013DC0000F09480524B1B6E514A43F0010313668C
:1013EC004F4B1B6E03F00103BB60BB684D4A7B691E
:1013FC009B08023352F823303B617B6903F00303F3
:10140C009B000F2202FA03F3DB433A6913403B6162
:10141C007B68B3F1904F0DD07B68434A934207D061
:10142C007B68424A934201D1022304E0072302E085
:10143C00012300E000237A6902F00302920093403A
:10144C003A6913433B6137497B699B0802333A691C
:10145C0041F82320364B9B683B61FB68DB433A69C0
:10146C0013403B613B685B6803F48013002B03D093
:10147C003A69FB6813433B612D4A3B6993602C4BE3
:10148C00DB683B61FB68DB433A6913403B613B68BB
:10149C005B6803F40013002B03D03A69FB68134319
:1014AC003B61234A3B69D360214B5B683B61FB6822
:1014BC00DB433A6913403B613B685B6803F40033E0
:1014CC00002B03D03A69FB6813433B61184A3B6914
:1014DC005360174B1B683B61FB68DB433A69134055
:1014EC003B613B685B6803F48033002B03D03A69A3
:1014FC00FB6813433B610E4A3B6913607B69013304
:10150C007B613B681A687B6922FA03F3002B7FF43A
:10151C00AFAE00BF00BF1C37BD465DF8047B704703
:10152C000010024000000140000400480008004880
:10153C000004014080B483B000AF78600B467B8020
:10154C0013467B707B78002B03D07A887B689A617A
:10155C0002E07A887B689A6200BF0C37BD465DF862
:10156C00047B704780B485B000AF78600B467B80FD
:10157C007B685B69FB607A88FB6813401A04FB6824
:10158C00D9437B880B401A437B689A6100BF1437A0
:10159C00BD465DF8047B704780B400AF044B1B68FC
:1015AC0003F4C0631846BD465DF8047B704700BF6A
:1015BC000070004080B485B000AF78607B68B3F5F4
:1015CC00007F30D1234B1B6803F4C063B3F5007F5D
:1015DC0038D0204B1B6823F4C0631E4A43F40073BD
:1015EC0013601D4B1B68322202FB03F31B4AA2FB48
:1015FC0003239B0C0133FB6002E0FB68013BFB60A7
:10160C00144B5B6903F48063B3F5806F02D1FB6804
:10161C00002BF2D10F4B5B6903F48063B3F5806F41
:10162C0010D103230FE00B4B1B6803F4C063B3F51D
:10163C00806F07D0074B1B6823F4C063054A43F443
:10164C0080631360002318461437BD465DF8047B95
:10165C00704700BF007000400000002083DE1B4379
:10166C0080B588B000AF78607B68002B02D1012375
:10167C0000F002BC964B9B6803F00C03BB61944BCF
:10168C00DB6803F003037B617B681B6803F01003CA
:10169C00002B00F0E480BB69002B07D0BB690C2B3E
:1016AC0040F08B807B69012B40F08780884B1B6856
:1016BC0003F00203002B05D07B689B69002B01D142
:1016CC000123D9E37B681A6A814B1B6803F008037A
:1016DC00002B04D07E4B1B6803F0F00305E07C4B21
:1016EC00D3F894301B0903F0F003934223D27B68A8
:1016FC001B6A184600F054FD0346002B01D0012351
:10170C00BAE3734B1B68724A43F008031360704BC7
:10171C001B6823F0F0027B681B6A6D4913430B6056
:10172C006B4B5B6823F47F427B68DB691B02684967
:10173C0013434B6025E0664B1B68654A43F0080376
:10174C001360634B1B6823F0F0027B681B6A6049D3
:10175C0013430B605E4B5B6823F47F427B68DB6951
:10176C001B025B4913434B60BB69002B09D17B689F
:10177C001B6A184600F014FD0346002B01D0012310
:10178C007AE300F081FC0246514B9B681B0903F085
:10179C000F035049CB5C03F01F0322FA03F34E4AAC
:1017AC0013604E4B1B68184601F044F80346FB735C
:1017BC00FB7B002B52D0FB7B5EE37B689B69002B91
:1017CC0032D0434B1B68424A43F00103136001F0D3
:1017DC0081F8386108E001F07DF802463B69D31AC4
:1017EC00022B01D9032347E3394B1B6803F0020397
:1017FC00002BF0D0364B1B68354A43F008031360BE
:10180C00334B1B6823F0F0027B681B6A304913438F
:10181C000B602F4B5B6823F47F427B68DB691B02F8
:10182C002B4913434B601AE0294B1B68284A23F0C1
:10183C000103136001F04EF8386108E001F04AF83A
:10184C0002463B69D31A022B01D9032314E3204B24
:10185C001B6803F00203002BF0D100E000BF7B6893
:10186C001B6803F00103002B73D0BB69082B05D058
:10187C00BB690C2B0ED17B69032B0BD1144B1B6852
:10188C0003F40033002B63D07B685B68002B5FD1C3
:10189C000123F1E27B685B68B3F5803F06D10C4B0A
:1018AC001B680B4A43F48033136025E07B685B684C
:1018BC00B3F5A02F14D1064B1B68054A43F48023C3
:1018CC001360034B1B68024A43F48033136013E02C
:1018DC0000100240442C00080000002004000020EE
:1018EC00A04B1B689F4A23F4803313609D4B1B68ED
:1018FC009C4A23F4802313607B685B68002B13D015
:10190C0000F0E8FF386108E000F0E4FF02463B69B4
:10191C00D31A642B01D90323AEE2924B1B6803F458
:10192C000033002BF0D014E000F0D4FF386108E055
:10193C0000F0D0FF02463B69D31A642B01D9032374
:10194C009AE2884B1B6803F40033002BF0D100E0C3
:10195C0000BF7B681B6803F00203002B60D0BB69DF
:10196C00042B05D0BB690C2B19D17B69022B16D12A
:10197C007C4B1B6803F48063002B05D07B68DB6811
:10198C00002B01D1012377E2764B5B6823F0F852F0
:10199C007B681B691B06734913434B6040E07B68F3
:1019AC00DB68002B23D06F4B1B686E4A43F48073AB
:1019BC00136000F08FFF386108E000F08BFF0246E7
:1019CC003B69D31A022B01D9032355E2654B1B68E3
:1019DC0003F48063002BF0D0624B5B6823F0F85269
:1019EC007B681B691B065F4913434B6018E05D4B1A
:1019FC001B685C4A23F48073136000F06BFF386142
:101A0C0008E000F067FF02463B69D31A022B01D9AC
:101A1C00032331E2534B1B6803F48063002BF0D19A
:101A2C007B681B6803F00803002B3CD07B685B6968
:101A3C00002B1CD04B4BD3F894304A4A43F0010393
:101A4C00C2F8943000F046FF386108E000F042FF25
:101A5C0002463B69D31A022B01D903230CE2414BFA
:101A6C00D3F8943003F00203002BEFD01BE03D4B76
:101A7C00D3F894303B4A23F00103C2F8943000F0C1
:101A8C0029FF386108E000F025FF02463B69D31AB4
:101A9C00022B01D90323EFE1324BD3F8943003F03E
:101AAC000203002BEFD17B681B6803F00403002BAF
:101ABC0000F0A6800023FB772A4B9B6D03F080532C
:101ACC00002B0DD1274B9B6D264A43F08053936519
:101ADC00244B9B6D03F08053BB60BB680123FB77E9
:101AEC00214B1B6803F48073002B18D11E4B1B6811
:101AFC001D4A43F48073136000F0ECFE386108E07B
:101B0C0000F0E8FE02463B69D31A022B01D90323ED
:101B1C00B2E1154B1B6803F48073002BF0D07B688B
:101B2C009B68012B08D10F4BD3F890300D4A43F032
:101B3C000103C2F8903029E07B689B68052B15D116
:101B4C00084BD3F89030074A43F00403C2F89030A6
:101B5C00044BD3F89030034A43F00103C2F89030A1
:101B6C0014E000BF00100240007000409A4BD3F804
:101B7C009030994A23F00103C2F89030964BD3F879
:101B8C009030954A23F00403C2F890307B689B6830
:101B9C00002B16D000F09EFE38610AE000F09AFE91
:101BAC0002463B69D31A41F28832934201D903238E
:101BBC0062E1894BD3F8903003F00203002BEDD097
:101BCC0015E000F087FE38610AE000F083FE024663
:101BDC003B69D31A41F28832934201D903234BE17A
:101BEC007D4BD3F8903003F00203002BEDD1FB7F3B
:101BFC00012B05D1784B9B6D774A23F0805393656D
:101C0C007B681B6803F02003002B3CD07B685B6A6D
:101C1C00002B1CD0704BD3F898306F4A43F0010363
:101C2C00C2F8983000F056FE386108E000F052FE21
:101C3C0002463B69D31A022B01D903231CE1664BE4
:101C4C00D3F8983003F00203002BEFD01BE0624B6B
:101C5C00D3F89830604A23F00103C2F8983000F0B2
:101C6C0039FE386108E000F035FE02463B69D31AB4
:101C7C00022B01D90323FFE0574BD3F8983003F024
:101C8C000203002BEFD17B689B6A002B00F0F380E2
:101C9C007B689B6A022B40F0C9804F4BDB687B61F1
:101CAC007B6903F003027B68DB6A9A422CD17B6967
:101CBC0003F070027B681B6B013B1B019A4223D122
:101CCC007B6903F4FE427B685B6B1B029A421BD15F
:101CDC007B6903F078427B689B6BDB069A4213D1DD
:101CEC007B6903F4C0027B68DB6B5B08013B5B0523
:101CFC009A4209D17B6903F0C0627B681B6C5B085C
:101D0C00013B5B069A426BD0BB690C2B62D0324B09
:101D1C001B6803F08063002B01D00123ACE02E4B39
:101D2C001B682D4A23F08073136000F0D3FD3861DB
:101D3C0008E000F0CFFD02463B69D31A022B01D913
:101D4C00032399E0244B1B6803F00073002BF0D1A4
:101D5C00214BDA68214B13407A68D16A7A68126B8E
:101D6C00013A120111437A68526B120211437A68DC
:101D7C00D26B5208013A520511437A68126C520820
:101D8C00013A520611437A68926BD2060A43124901
:101D9C001343CB60104B1B680F4A43F080731360E6
:101DAC000D4BDB680C4A43F08073D36000F092FD5E
:101DBC00386108E000F08EFD02463B69D31A022B15
:101DCC0001D9032358E0044B1B6803F00073002B6C
:101DDC00F0D050E001234FE0001002408C809D01B8
:101DEC00274B1B6803F00073002B44D1244B1B685A
:101DFC00234A43F080731360214BDB68204A43F085
:101E0C008073D36000F066FD386108E000F062FD7D
:101E1C0002463B69D31A022B01D903232CE0184B41
:101E2C001B6803F00073002BF0D024E0BB690C2B73
:101E3C001FD0134B1B68124A23F08073136000F001
:101E4C0049FD386108E000F045FD02463B69D31AB4
:101E5C00022B01D903230FE0094B1B6803F000731D
:101E6C00002BF0D1064BDA680549064B1340CB60CA
:101E7C0001E0012300E0002318462037BD4680BD59
:101E8C0000100240FCFFEEFE80B584B000AF78601D
:101E9C0039607B68002B01D10123E7E0754B1B688F
:101EAC0003F007033A689A4210D9724B1B6823F06F
:101EBC00070270493B6813430B606E4B1B6803F0C1
:101ECC0007033A689A4201D00123CFE07B681B6874
:101EDC0003F00203002B10D07B689A68664B9B685A
:101EEC0003F0F0039A4208D9634B9B6823F0F0028D
:101EFC007B689B68604913438B607B681B6803F0AD
:101F0C000103002B4CD07B685B68032B07D15A4B29
:101F1C001B6803F00073002B21D10123A6E07B6822
:101F2C005B68022B07D1544B1B6803F40033002B66
:101F3C0015D101239AE07B685B68002B07D14E4BCF
:101F4C001B6803F00203002B09D101238EE04A4BDE
:101F5C001B6803F48063002B01D1012386E0464B00
:101F6C009B6823F003027B685B68434913438B60D7
:101F7C0000F0B0FCF8600AE000F0ACFC0246FB6834
:101F8C00D31A41F28832934201D903236EE03A4BC3
:101F9C009B6803F00C027B685B689B009A42EBD158
:101FAC007B681B6803F00203002B10D07B689A68D7
:101FBC00314B9B6803F0F0039A4208D22E4B9B687E
:101FCC0023F0F0027B689B682B4913438B60294BF1
:101FDC001B6803F007033A689A4210D2254B1B6822
:101FEC0023F0070223493B6813430B60214B1B680A
:101FFC0003F007033A689A4201D0012336E07B686C
:10200C001B6803F00403002B08D01B4B9B6823F4C4
:10201C00E0627B68DB68184913438B607B681B6844
:10202C0003F00803002B09D0134B9B6823F4605278
:10203C007B681B69DB00104913438B6000F024F8AC
:10204C0002460D4B9B681B0903F00F030B49CB5C3D
:10205C0003F01F0322FA03F3094A1360094B1B68B0
:10206C00184600F0E7FB0346FB72FB7A1846103764
:10207C00BD4680BD0020024000100240442C0008E8
:10208C00000000200400002080B489B000AF0023C1
:10209C00FB610023BB613E4B9B6803F00C033B616F
:1020AC003B4BDB6803F00303FB603B69002B05D063
:1020BC003B690C2B21D1FB68012B1ED1344B1B68C7
:1020CC0003F00803002B07D1314BD3F894301B0AD3
:1020DC0003F00F03FB6105E02D4B1B681B0903F09C
:1020EC000F03FB612B4AFB6952F82330FB613B6900
:1020FC00002B0DD1FB69BB610AE03B69042B02D1BB
:10210C00254BBB6104E03B69082B01D1234BBB6120
:10211C003B690C2B34D11E4BDB6803F00303BB6013
:10212C00BB68022B03D0BB68032B03D005E01A4B12
:10213C007B6105E0194B7B6102E0FB697B6100BFB1
:10214C00134BDB681B0903F0070301337B60104B57
:10215C00DB681B0A03F07F037A6903FB02F27B68DE
:10216C00B2FBF3F37B610A4BDB685B0E03F00303FA
:10217C0001335B003B607A693B68B2FBF3F3BB61F4
:10218C00BB6918462437BD465DF8047B704700BF19
:10219C0000100240542C00080024F40000127A00B5
:1021AC0080B586B000AF786000233B612A4B9B6DF5
:1021BC0003F08053002B03D0FFF7EEF9786114E0A5
:1021CC00254B9B6D244A43F080539365224B9B6DAA
:1021DC0003F08053FB60FB68FFF7DEF978611E4B60
:1021EC009B6D1D4A23F0805393657B69B3F5007F8B
:1021FC000BD17B68802B19D97B68A02B02D90223C9
:10220C003B6113E001233B6110E07B68802B02D91A
:10221C0003233B610AE07B68802B02D102233B61E4
:10222C0004E07B68702B01D101233B610B4B1B68D5
:10223C0023F0070209493B6913430B60074B1B68EA
:10224C0003F007033A699A4201D0012300E000230E
:10225C0018461837BD4680BD0010024000200240D1
:10226C0080B485B000AF786039607B6893F83C30FF
:10227C00012B01D102234FE07B68012283F83C2023
:10228C007B68022283F83D207B681B685B68FB60DF
:10229C007B681B689B68BB607B681B68214A934208
:1022AC0008D1FB6823F47003FB603B685B68FA6839
:1022BC001343FB60FB6823F07003FB603B681B68F7
:1022CC00FA681343FB607B681B68FA685A607B688A
:1022DC001B68144A934209D07B681B68B3F1804F8A
:1022EC0004D07B681B68104A93420CD1BB6823F066
:1022FC008003BB603B689B68BA681343BB607B6818
:10230C001B68BA689A607B68012283F83D207B6861
:10231C00002283F83C20002318461437BD465DF894
:10232C00047B7047002C01400040014080B582B016
:10233C0000AF78607B68002B01D1012349E07B68FA
:10234C0093F83D30DBB2002B06D17B68002283F87A
:10235C003C207868FEF73CF97B68022283F83D202C
:10236C007B681A687B6804331946104600F04CF9F8
:10237C007B68012283F848207B68012283F83E2089
:10238C007B68012283F83F207B68012283F8402080
:10239C007B68012283F841207B68012283F842206C
:1023AC007B68012283F843207B68012283F8442058
:1023BC007B68012283F845207B68012283F8462044
:1023CC007B68012283F847207B68012283F83D203B
:1023DC00002318460837BD4680BD000080B485B088
:1023EC0000AF78607B6893F83D30DBB2012B01D0F5
:1023FC00012333E07B68022283F83D207B681B6855
:10240C00194A934209D07B681B68B3F1804F04D002
:10241C007B681B68154A934215D17B681B689A68C8
:10242C00134B1340FB60FB68062B15D0FB68B3F510
:10243C00803F11D07B681B681A687B681B6842F070
:10244C0001021A6008E07B681B681A687B681B68CD
:10245C0042F001021A6000E000BF00231846143756
:10246C00BD465DF8047B7047002C014000400140E4
:10247C000700010080B584B000AF7860396000239C
:10248C00FB737B6893F83C30012B01D10223B6E03F
:10249C007B68012283F83C207B68022283F83D2074
:1024AC007B681B689B68BB60BB6823F4803323F09C
:1024BC007703BB60BB6823F47F43BB607B681B68FE
:1024CC00BA689A603B681B68B3F5005F3ED0B3F501
:1024DC00005F00F28780B3F5805F00F08680B3F573
:1024EC00805F7FD8702B1AD0702B7BD8602B50D08C
:1024FC00602B77D8502B3CD0502B73D8402B58D016
:10250C00402B6FD8302B64D0302B6BD8202B60D065
:10251C00202B67D8002B5CD0102B5AD062E07B6844
:10252C0018683B6899683B685A683B68DB6800F040
:10253C0049F97B681B689B68BB60BB6843F07703F9
:10254C00BB607B681B68BA689A604FE07B68186850
:10255C003B6899683B685A683B68DB6800F032F965
:10256C007B681B689A687B681B6842F480429A609F
:10257C003CE07B6818683B6859683B68DB681A4626
:10258C0000F0A6F87B681B685021184600F0FFF895
:10259C002CE07B6818683B6859683B68DB681A4616
:1025AC0000F0C5F87B681B686021184600F0EFF856
:1025BC001CE07B6818683B6859683B68DB681A4606
:1025CC0000F086F87B681B684021184600F0DFF8A5
:1025DC000CE07B681A683B681B681946104600F0D3
:1025EC00D6F803E00123FB7300E000BF7B680122F7
:1025FC0083F83D207B68002283F83C20FB7B184647
:10260C001037BD4680BD000080B485B000AF786047
:10261C0039607B681B68FB607B682A4A934203D055
:10262C007B68B3F1804F08D1FB6823F07003FB602B
:10263C003B685B68FA681343FB607B68214A9342F2
:10264C000BD07B68B3F1804F07D07B681E4A934256
:10265C0003D07B681D4A934208D1FB6823F4407376
:10266C00FB603B68DB68FA681343FB60FB6823F094
:10267C0080023B685B691343FB607B68FA681A60F5
:10268C003B689A687B68DA623B681A687B689A6276
:10269C007B680C4A934207D07B680B4A934203D069
:1026AC007B680A4A934203D13B681A697B681A63B8
:1026BC007B6801225A6100BF1437BD465DF8047B6C
:1026CC00704700BF002C0140004001400044014015
:1026DC0080B487B000AFF860B9607A60FB681B6AA1
:1026EC007B61FB681B6A23F00102FB681A62FB68C2
:1026FC009B693B613B6923F0F0033B617B681B01E9
:10270C003A6913433B617B6923F00A037B617A6965
:10271C00BB6813437B61FB683A699A61FB687A6911
:10272C001A6200BF1C37BD465DF8047B704780B44D
:10273C0087B000AFF860B9607A60FB681B6A23F061
:10274C001002FB681A62FB689B697B61FB681B6A61
:10275C003B617B6923F470437B617B681B037A6963
:10276C0013437B613B6923F0A0033B61BB681B01F6
:10277C003A6913433B61FB687A699A61FB683A6971
:10278C001A6200BF1C37BD465DF8047B704780B4ED
:10279C0085B000AF786039607B689B68FB60FB6834
:1027AC0023F07003FB603A68FB68134343F00703A4
:1027BC00FB607B68FA689A6000BF1437BD465DF811
:1027CC00047B704780B487B000AFF860B9607A6062
:1027DC003B60FB689B687B617B6923F47F437B6177
:1027EC003B681A027B681A43BB6813437A6913432C
:1027FC007B61FB687A699A6000BF1C37BD465DF847
:10280C00047B704780B582B000AF0023FB710320BE
:10281C00FEF73CF8002000F00DF80346002B02D028
:10282C000123FB7101E0FDF741FEFB7918460837E7
:10283C00BD4680BD80B584B000AF78600023FB73CB
:10284C00174B1B78002B23D0164B1A68144B1B7894
:10285C0019464FF47A73B3FBF1F3B2FBF3F318465A
:10286C00FEF749F80346002B0FD17B680F2B09D8D4
:10287C00002279684FF0FF30FEF713F80A4A7B68A4
:10288C00136007E00123FB7304E00123FB7301E0F9
:10289C000123FB73FB7B18461037BD4680BD00BF80
:1028AC0008000020000000200400002080B400AFCD
:1028BC00064B1B781A46064B1B681344044A1360DC
:1028CC0000BFBD465DF8047B704700BF08000020C8
:1028DC00D000002080B400AF034B1B681846BD46E7
:1028EC005DF8047B704700BFD000002080B584B039
:1028FC0000AF7860FFF7EEFFB8607B68FB60FB68A9
:10290C00B3F1FF3F05D00A4B1B781A46FB68134402
:10291C00FB6000BFFFF7DEFF0246BB68D31AFA6804
:10292C009A42F7D800BF00BF1037BD4680BD00BF2C
:10293C000800002080B5ADF5027D02AF07F50073ED
:10294C00A3F500730B4A184611464FF400731A4650
:10295C0000F050F83A4600230093802300210648EB
:10296C00FEF74CF80548FFF739FD00BF07F5007777
:10297C00BD4680BD442A00082800002084000020A9
:10298C0080B500AF08210848FEF7ECFD4FF47A70D3
:10299C00FFF7ACFF08210448FEF7E4FD6420FFF7C5
:1029AC00A5FF00BF80BD00BF0004004870B50D4DF1
:1029BC000D4C641BA4100026A64209D10B4D0C4CE7
:1029CC0000F02EF8641BA4100026A64205D170BDA1
:1029DC0055F8043B98470136EEE755F8043B984709
:1029EC000136F2E7842C0008842C0008842C0008A3
:1029FC00882C00080A44914200F1FF3300D1704743
:102A0C0010B511F8014B03F8014F9142F9D110BDEB
:102A1C0002440346934200D1704703F8011BF9E7C7
:102A2C00F8B500BFF8BC08BC9E467047F8B500BFAF
:082A3C00F8BC08BC9E4670477F
:102A44000008000065080000CA0800002E09000004
:102A540092090000F5090000560A0000B60A0000B9
:102A6400150B0000710B0000CC0B0000240C0000BF
:102A7400790C0000CB0C00001B0D0000670D00005A
:102A8400B00D0000F60D0000370E0000750E0000BA
:102A9400AF0E0000E40E0000150F0000420F00000E
:102AA4006A0F00008E0F0000AD0F0000C70F00007A
:102AB400DC0F0000EC0F0000F70F0000FE0F000019
:102AC400FF0F0000FB0F0000F20F0000E50F0000F5
:102AD400D20F0000BA0F00009E0F00007D0F00000F
:102AE400570F00002C0F0000FD0E0000CA0E00005E
:102AF400920E0000570E0000170E0000D30D0000C8
:102B04008C0D0000420D0000F40C0000A30C00002A
:102B14004F0C0000F80B00009F0B0000430B00005B
:102B2400E60A0000870A0000260A0000C409000023
:102B340060090000FC08000097080000320800004B
:102B4400CD07000068070000030700009F0600008F
:102B54003B060000D90500007805000019050000B7
:102B6400BC0400006004000007040000B00300007F
:102B74005C0300000B030000BD02000073020000B0
:102B84002C020000E8010000A80100006D01000013
:102B94003501000002010000D3000000A80000007D
:102BA4008200000061000000450000002D000000CC
:102BB4001A0000000D0000000400000000000000E6
:102BC40001000000080000001300000023000000C2
:102BD4003800000052000000710000009500000061
:102BE400BD000000EA0000001B01000050010000CD
:102BF4008A010000C8010000090200004F02000021
:102C040098020000E4020000340300008603000080
:102C1400DB030000330400008E040000EA0400001B
:102C240049050000A90500000A0600006D06000021
:102C3400D1060000350700009A070000FF070000D6
:102C44000000000000000000010203040607080958
:102C5400A0860100400D0300801A060000350C0018
:102C640040420F0080841E0000093D0000127A00DB
:102C74000024F40000366E010048E801006CDC0218
:042C8400B101000892
:042C88008D010008B2
:0C2C8C0000093D001000000001000000E5
:04000005080006A544
:00000001FF
