:020000040800F2
:1000000000000120E1040008AD040008AF0400086E
:10001000B1040008B3040008B504000800000000A3
:10002000000000000000000000000000B70400080D
:10003000B904000800000000BB040008BD0400086B
:1000400031050008310500083105000831050008B8
:1000500031050008310500083105000831050008A8
:100060003105000831050008310500083105000898
:1000700031050008C10400083105000831050008F9
:100080003105000831050008310500083105000878
:100090003105000831050008310500083105000868
:1000A0003105000831050008310500083105000858
:1000B00031050008000000000000000031050008C4
:1000C00031050008000000000000000031050008B4
:1000D00000000000310500083105000800000000A4
:1000E0003105000831050008000000000000000094
:1000F0000000000000000000000000000000000000
:1001000000000000000000000000000031050008B1
:100110000000000000000000310500083105000863
:1001200031050008310500083105000831050008D7
:100130003105000800000000000000000000000081
:1001400031050008310500083105000831050008B7
:1001500031050008310500083105000831050008A7
:1001600031050008310500083105000800000000D5
:100170003105000831050008000000000000000003
:0C018000310500083105000831050008B9
:10018C0010B5054C237833B9044B13B10448AFF3C5
:10019C0000800123237010BD0C0000200000000023
:1001AC009C18000808B5034B1BB103490348AFF377
:1001BC00008008BD00000000100000209C18000802
:1001CC0010B596B04422002105A8142401F058FB68
:1001DC0022460021684601F053FB4FF4007000F0FA
:1001EC0011FD08B172B6FEE710224FF48071CDE913
:1001FC00081201220223CDE911240722CDE90F3385
:10020C00CDE91323059305A80623159300F0C0FD33
:10021C0008B172B6FEE7CDE902000F23032104906A
:10022C006846CDE9003101F057F808B172B6FEE727
:10023C0016B010BD80B5584C90B001F085FAFFF7A0
:10024C00BFFF1422002107A801F01AFBE36C5348EE
:10025C0043F00403E364E36C03F004030193019B98
:10026C00E36C43F00103E364E36C03F001030293DA
:10027C00029BE36C43F00203E364E36C03F00203C0
:10028C00002203930821039B022700F0A5FC042302
:10029C0000250326CDE9073707A907234FF0904027
:1002AC00CDE909560B9300F0DFFB4FF4004307A98F
:1002BC004FF09040CDE90737CDE909560B9600F089
:1002CC00D3FB08220123354807A9CDE90723CDE943
:1002DC00095500F0C9FBA36C43F00103A364A36CA4
:1002EC002F4C03F001032A46294600930D20009B56
:1002FC00242600F02BF90D2000F05AF9324629463D
:10030C0007A801F0BDFA274B2360204600F08EF9B8
:10031C00024608B172B6FEE7CDE90706CDE9090041
:10032C000B9007A9204600F01FFA044608B172B6DC
:10033C00FEE71D4D0146102207A801F0A1FA4FF06F
:10034C008043C5E9003428464FF41C73CDE90444BE
:10035C00C5E903340694AC60AC6101F0F9F808B15E
:10036C0072B6FEE74FF4805307A92846079301F0B5
:10037C0029F908B172B6FEE72023069004A9284695
:10038C00049301F053F808B172B6FEE701F012FACB
:10039C0001F02EFAFCE700BF0010024000040048F8
:1003AC0028000020007400408400002072B6FEE794
:1003BC000A4B1A6E42F001021A661A6E82B002F0F3
:1003CC0001020092009A9A6D42F080529A659B6DE0
:1003DC0003F080530193019B02B070470010024060
:1003EC0070B5054688B01422002103A801F048FA24
:1003FC002A681F4B9A4239D103F5CE3310269A6DD9
:10040C001C4C42F000529A659A6D02F00052019217
:10041C00019ADA6C42F00102DA64DB6C03F001033E
:10042C000293029B03A903234FF09040CDE9036391
:10043C0000F01AFB104AA6600623C4E90023002131
:10044C0080234FF40070C4E903134FF40063C4E934
:10045C00050320264FF400532046C4E9076300F03F
:10046C000DFA08B1FFF7A2FFAC60A56208B070BD31
:10047C00007400403C000020300002400368B3F1DF
:10048C00804F82B00AD103F504339A6D42F0010219
:10049C009A659B6D03F001030193019B02B07047B9
:1004AC00FEE7FEE7FEE7FEE7FEE7704770477047A2
:1004BC0001F05AB9014800F08CBA00BF3C00002092
:1004CC00034AD2F8883043F47003C2F8883070477E
:1004DC0000ED00E0DFF834D0FFF7F2FF0C480D49D7
:1004EC000D4A002302E0D458C4500433C4188C4283
:1004FC00F9D30A4A0A4C002301E013600432A242E9
:10050C00FBD301F08BF9FFF795FEFEE7000001200D
:10051C00000000200C000020FC1A00080C00002039
:10052C00D4000020FEE700000749CA6822F4E0620C
:10053C000302120403F4E063120C134343F0BF6391
:10054C0043F40033CB60704700ED00E0164B30B540
:10055C00DC68C4F30224C4F10705231D042D28BF55
:10056C000425062B4FF0FF338CBF033C002403FA09
:10057C0005F521EA0501A34022EA0302A140002867
:10058C0041EA0203ACBF00F16040084A4FEA031392
:10059C00B8BF00F00F00DBB2AABF00F561401354E6
:1005AC0080F8003330BD00BF00ED00E014ED00E03A
:1005BC00002808DB0123420900F01F0003FA00F0B9
:1005CC00014B43F82200704700E100E00138B0F124
:1005DC00807F0BD24FF0E023054A5861F02182F85E
:1005EC0023100020072298611A6170470120704780
:1005FC0000ED00E070477047704710B5846A2046E4
:10060C00FFF7F8FF0123237110BD08B5806AFFF7CF
:10061C00F2FF08BD10B5846A236943F0040323611B
:10062C002046FFF7E9FF0123237110BD10B50446E6
:10063C0068B1037903F0FF0213B94271FFF7D0FEE2
:10064C0002232371002001232061237110BD01209E
:10065C00FCE70000F8B50D4611464279069E012ACA
:10066C0004464FF0020029D00122207162712068EB
:10067C005DBBA268284FD762284F1763284F57637A
:10068C000268042E42F48052026018D0082E19D051
:10069C00002E38D100F10802066846F400560660B8
:1006AC00A06800F057F90023637180BB236805F044
:1006BC0010011A6801258D4015431D60F8BD00F12D
:1006CC000C02E9E700F11002E6E7E268154FD76289
:1006DC00154F1763154F57630268042E42F0805272
:1006EC0002600AD0082E0BD07EB900F11402066805
:1006FC0046F000560660E068D3E700F11802F6E712
:10070C0000F11C02F3E72A46C6E70022EFE7236953
:10071C0043F004032361D1E73F07000851070008A9
:10072C005D070008070600081706000821060008E8
:10073C00704710B5846A2046FFF7FAFF0123237136
:10074C0010BD704708B5806AFFF7FBFF08BD704706
:10075C0010B5846A236943F0040323612046FFF734
:10076C00F6FF0123237110BDF8B5164642790B68CC
:10077C00012A04460D464FF002001ED00122042B24
:10078C00627120713AD100F0FBFF0746B6B12368C5
:10079C005B6B002B6BDB012000F0F8FF2368AA6970
:1007AC005A6415E000F0ECFFC01B012806D9236940
:1007BC00032043F0080323612071F8BD23685B6BB1
:1007CC001B04EFD4012000F0E1FF2368AA691A642E
:1007DC00216806F010008A6C40F2FF33834022EA55
:1007EC000302EB6983401A438A64CB6CFF2282407C
:1007FC0023EA02032A6A82401343CB6429692368E3
:10080C00012906F0100208D1996B1F20904021EAB3
:10081C0000006969914001439963D96BAE68072068
:10082C00904021EA000029683143EE683143914041
:10083C000143D96319684FF48040904021EA0001CC
:10084C001960196840F6FC70904021EA0000696854
:10085C009140014319601968C02000FA02F221EAA4
:10086C0002021A600020012323716071A5E700F0D9
:10087C0087FFC01B01288AD999E7000030B50028F2
:10088C005BD001682E4B99424FF0140442D82D4A8C
:10089C000A44B2FBF4F292004264A3F207430364ED
:1008AC00022380F82530D0E9024305690A68234306
:1008BC002B4345692B4385692B43C5692B43056A3B
:1008CC0022F4FF4222F070022B431343B4F5804F05
:1008DC000B6016D0446C016C04F01C0244680F23AE
:1008EC0093409440184A91426FEA03031AD1D1F80D
:1008FC00A8201340C1F8A830D1F8A8301C43C1F887
:10090C00A84000230122C36380F8243080F82520FE
:10091C00184630BD0D4B0B44B3FBF4F39B00436402
:10092C000B4BBCE7D2F8A8140B40C2F8A834D2F891
:10093C00A8341C43C2F8A844E3E70120E9E700BF50
:10094C0007040240F8FFFDBF00000240F8FBFDBFAA
:10095C0000040240F0B590F82440012C37D001245B
:10096C0080F8244090F82540012CE5B24FF00006A9
:10097C004FF0020429D180F825400468C66326682C
:10098C0026F001062660D0E9106707F01C07BD4071
:10099C00756063608368102B036B0BBFA260A16052
:1009AC00E160E2604BB1236843F00E0323602368DF
:1009BC0043F0010323600020F0BD236823F00403FF
:1009CC002360236843F00A03F0E780F824600220D8
:1009DC00F2E7016C426C036870B402F01C020E6802
:1009EC001D680424944034420ED015F0040F0BD033
:1009FC001A6892065EBF1A6822F004021A60036B32
:100A0C004C6073B370BC184702249440344212D02B
:100A1C0015F0020F0FD01A68950606D41A6822F04A
:100A2C000A021A60012380F8253000234C6080F8FC
:100A3C002430C36AE5E708249440344211D02C07D3
:100A4C000FD51C6824F00E041C60012303FA02F27B
:100A5C004A60C36380F82530002380F82430436B50
:100A6C00CFE770BC704700002DE9F74FDFF86491B9
:100A7C00564C00230A6832FA03F502D103B0BDE8E4
:100A8C00F08F012505FA03F818EA020200F09880AD
:100A9C004E68032706F003054FEA430E07FA0EFCD7
:100AAC006F1E012F6FEA0C0C34D8876807EA0C0A0A
:100ABC00CF6807FA0EF747EA0A078760476827EA04
:100ACC000808C6F300179F4047EA08074760C76845
:100ADC0007EA0C088F6807FA0EF747EA0807022D99
:100AEC00C76019D14FEAD30800EB880803F0070A56
:100AFC00D8F820704FEA8A0A4FF00F0B0BFA0AFB5A
:100B0C0027EA0B0B0F6907FA0AF747EA0B07C8F835
:100B1C00207001E0032DDAD1076805FA0EF507EA1B
:100B2C000C072F4316F4403F076049D0D9F86050AA
:100B3C0045F00105C9F86050D9F8605023F003075F
:100B4C0007F1804705F0010507F58037019503F0A3
:100B5C00030C019DBD684FEA8C0C4FF00F0E0EFA82
:100B6C000CFEB0F1904F25EA0E0E2BD0184DA8427A
:100B7C002AD005F58065A8420CBF0225072505FA89
:100B8C000CF545EA0E05BD60A568D74316F4801F29
:100B9C000CBF3D401543A560E56816F4001F0CBF63
:100BAC003D401543E560656816F4003F0CBF3D40C1
:100BBC00154365602568F60354BF3D401543256019
:100BCC00013357E70025DAE70125D8E70004014097
:100BDC0000040048001002400AB181617047816234
:100BEC007047436901EA030221EA030141EA024129
:100BFC0081617047024B186800F4C060704700BFF9
:100C0C0000700040174A1368B0F5007F03F4C0630E
:100C1C001DD1B3F5007F01D100207047136823F478
:100C2C00C06343F4007313600F4B1B6832214B43BA
:100C3C000E49B3FBF1F301335169490500D523B9D2
:100C4C0053695B05E8D503207047013BF4E7B3F526
:100C5C00806F1FBF136823F4C06343F48063136079
:100C6C00DAE700BF007000400000002040420F0097
:100C7C0037B51E4DAB6DDA00044618D5FFF7BAFF39
:100C8C00B0F5007F23D1802C29D9A02C8CBF022059
:100C9C000120174A136823F00703034313601368FA
:100CAC0003F00703181A18BF012003B030BDAB6D59
:100CBC0043F08053AB65AB6D03F080530193019B04
:100CCC00FFF798FFAB6D23F08053AB65D8E7802C12
:100CDC0007D808D0A4F1700358425841D9E7002036
:100CEC00D7E70320D5E70220D3E700BF001002406E
:100CFC0000200240224B9A68D96812F00C0205D0F1
:100D0C000C2A15D101F00301012918D119681D48CD
:100D1C00090755BFD3F894101968C1F30321C1F327
:100D2C00031150F821004AB30C2A09D00020704757
:100D3C00042A22D0082A144818BF0020704700202B
:100D4C00DA6802F00302022A15D00F49032A08BF01
:100D5C000846D968DA68C2F306224243D868C0F361
:100D6C004160C1F30211013001314000B2FBF1F2DC
:100D7C00B2FBF0F070470548EBE70448704700BF42
:100D8C0000100240C41A000800127A000024F4007B
:100D9C002DE9F743054608B9012047E0944C036858
:100DAC00A668E768DB0606F00C0607F0030775D5A6
:100DBC001EB10C2E54D1012F52D12368980702D5A5
:100DCC00AB69002BE8D02368286A190756BFD4F802
:100DDC00943023681B0903F0F003984229D9FFF7DC
:100DEC0047FF0028D8D1236843F008032360236809
:100DFC002A6A23F0F003134323606368EA6923F43F
:100E0C007F4343EA02236360FFF774FFA368794AC8
:100E1C00C3F30313D35C03F01F03D840764B186065
:100E2C00764B186800F06AFC002837D003B0BDE898
:100E3C00F083236843F008032360236823F0F00356
:100E4C00034323606368EA6923F47F4343EA022384
:100E5C006360002ED8D1FFF70BFF0028D4D09BE79E
:100E6C00AB69002B3AD0236843F00103236000F0F8
:100E7C0087FC804623689A0728D5236843F008032B
:100E8C00236023682A6A23F0F0031343236063680A
:100E9C00EA6923F47F4343EA022363602B68D80793
:100EAC002DD42B6899076BD42B68180700F1A880F8
:100EBC002B68590700F1CE802B68990600F1378119
:100ECC00AB6A002B40F05D810020AFE700F058FCCE
:100EDC00A0EB08000228CDD90320A7E7236823F054
:100EEC000103236000F04CFC804623689B07D5D59A
:100EFC0000F046FCA0EB08000228F6D9ECE7082E1F
:100F0C0003D00C2E08D1032F06D123689A03C8D521
:100F1C006B68002BC5D13FE76B68B3F5803F10D1F0
:100F2C00236843F48033236000F02AFC8046236856
:100F3C009B03B6D400F024FCA0EB08006428F6D97F
:100F4C00CAE7B3F5A02F04D1236843F480232360B0
:100F5C00E6E7226822F480322260226822F48022A2
:100F6C002260002BE0D100F00BFC80462368980334
:100F7C0097D500F005FCA0EB08006428F6D9ABE788
:100F8C00042E03D00C2E10D1022F0ED1236859053C
:100F9C0003D5EB68002B3FF4FFAE63682A6923F09E
:100FAC00F85343EA026363607EE7EB687BB1236826
:100FBC0043F48073236000F0E3FB074623685A0573
:100FCC00EBD400F0DDFBC01B0228F7D984E72368C3
:100FDC0023F48073236000F0D3FB074623685B0582
:100FEC007FF562AF00F0CCFBC01B0228F6D973E78B
:100FFC0000100240B41A0008000000200800002075
:10100C006B699BB1D4F8943043F00103C4F894306D
:10101C0000F0B6FB0746D4F894309A073FF548AF7A
:10102C0000F0AEFBC01B0228F5D955E7D4F894307C
:10103C0023F00103C4F8943000F0A2FB0746D4F867
:10104C0094309B077FF534AF00F09AFBC01B02284D
:10105C00F5D941E7A36DD80029D4A36D43F0805393
:10106C00A365A36D03F080530193019B4FF001081E
:10107C00964F3B68D9051DD5AB68012B2BD1D4F805
:10108C00903043F00103C4F8903000F079FB41F24A
:10109C0088390746D4F890309B0742D5B8F1000F39
:1010AC003FF40AAFA36D23F08053A36504E74FF020
:1010BC000008DDE73B6843F480733B6000F060FBA5
:1010CC0081463B68DA05D7D400F05AFBA0EB090047
:1010DC000228F6D900E7052B06D1D4F8903043F05E
:1010EC000403C4F89030CAE7D4F8902022F001022F
:1010FC00C4F89020D4F8902022F00402C4F8902078
:10110C00002BC2D100F03CFB41F288390746D4F8E1
:10111C0090309807C2D500F033FBC01B4845F6D978
:10112C00DAE600F02DFBC01B4845B3D9D4E66B6A58
:10113C009BB1D4F8983043F00103C4F8983000F018
:10114C001FFB0746D4F898309A073FF5B9AE00F06C
:10115C0017FBC01B0228F5D9BEE6D4F8983023F053
:10116C000103C4F8983000F00BFB0746D4F8983014
:10117C009B077FF5A5AE00F003FBC01B0228F5D939
:10118C00AAE6022B40F08880E368EA6A03F00301C8
:10119C00914222D1296B03F070020139B2EB011F8D
:1011AC001BD1696B03F4FE42B2EB012F15D1A96B75
:1011BC0003F07842B2EBC16F0FD1EA6B520803F423
:1011CC00C001013AB1EB425F07D12A6C520803F01F
:1011DC00C063013AB3EB426F45D00C2E3FF4DCAD4B
:1011EC0023685E013FF5D8AD236823F0807323603C
:1011FC0000F0C6FA0646236898012ED4E268344BF8
:10120C001340EA6A13436A6B43EA0223AA6B43EA6C
:10121C00C2632A6B013A43EA0213EA6B5208013AA1
:10122C0043EA42532A6C5208013A43EA4263E360B0
:10123C00236843F080732360E36843F08073E360BA
:10124C0000F09EFA0546236899013FF53DAE00F08B
:10125C0097FA401B0228F6D93EE600F091FA801B63
:10126C000228C8D938E623689A013FF52DAE2368C9
:10127C0043F080732360E36843F08073E36000F015
:10128C007FFA054623689B013FF51EAE00F078FA05
:10129C00401B0228F6D91FE60C2E3FF47DAD2368C7
:1012AC0023F08073236000F06BFA0546236813F07B
:1012BC00007304D1E168074A0A40E26004E600F0DA
:1012CC005FFA401B0228F1D906E600BF007000400F
:1012DC008C809D01FCFFEEFE2DE9F0410D4604468D
:1012EC0010B90120BDE8F0814B4A136803F00703E5
:1012FC008B422CD32068860734D4C1073FD4216895
:10130C008A0768D4444A136803F00703AB426FD8CA
:10131C0011F0040F414D77D10B0706D5AB6822694C
:10132C0023F4605343EAC203AB60FFF7E3FCAB6802
:10133C003B4AC3F30313BDE8F041D35C03F01F0336
:10134C00D840384B1860384B186800F0D7B9136880
:10135C0023F007030B431360136803F007038B425E
:10136C00BFD1C7E72D4AA668916801F0F0018E4203
:10137C0081BF936823F0F00333439360BDE7626849
:10138C00264E032A33681AD113F0007FA9D0B36814
:10139C0023F003031343B36000F0F2F941F28838F1
:1013AC000746B368626803F00C03B3EB820FA6D058
:1013BC0000F0E6F9C01B4045F3D9032092E7022A5E
:1013CC0002D113F4003FE1E712B913F0020FDDE78D
:1013DC0013F4806FDAE7114AA668906800F0F00009
:1013EC0086423FBF936823F0F0033343936089E751
:1013FC00136823F007032B431360136803F00703F0
:10140C00AB427FF46EAF83E7AB68E26823F4E06332
:10141C001343AB6080E700BF002002400010024085
:10142C00B41A0008000000200800002070B590F8E5
:10143C003C30012B4FF0020323D00268124D80F890
:10144C003D3053689468AA4202BF4E6823F470037F
:10145C0033430E6823F070033343AA42536005D024
:10146C00B2F1804F02D0094B9A4204D1896824F022
:10147C0080030B439360012380F83D30002380F8F8
:10148C003C30184670BD00BF002C014000400140AC
:10149C0090F83D30012B1BD102230E4A80F83D30D1
:1014AC000368934206D0B3F1804F03D002F5A052EB
:1014BC00934207D19968084A0A40062A06D0B2F529
:1014CC00803F03D01A6842F001021A600020704776
:1014DC0001207047002C0140070001001A4A0368E4
:1014EC00904210B502D0B0F1804F09D14C6823F076
:1014FC007003904243EA040309D0B0F1804F06D048
:10150C00124A904203D002F58062904203D1CA681D
:10151C0023F4407313434A6923F08003134303609D
:10152C008B68C3620B688362074B984207D003F544
:10153C00A053984203D003F58063984201D10B6904
:10154C0003630123436110BD002C014000400140A6
:10155C0010B5044650B390F83D3003F0FF021BB9B0
:10156C0080F83C20FEF78AFF0223206884F83D3087
:10157C00211DFFF7B3FF012384F84830002084F8C5
:10158C003E3084F83F3084F8403084F8413084F8A1
:10159C00423084F8433084F8443084F8453084F881
:1015AC00463084F8473084F83D3010BD0120FCE70C
:1015BC0010B58468114324F47F4441EA0323234388
:1015CC00836010BD70B590F83C30012B04464FF091
:1015DC00020300F08F80012280F83D3080F83C201F
:1015EC000068454B85682B4083600B68602B52D09C
:1015FC0033D8402B67D016D8202B0DD00AD833F017
:10160C00100109D0012384F83D30002384F83C30CC
:10161C00104670BD302BF5D1826822F07002134356
:10162C0043F0070317E0502BECD14A68CE68016AEF
:10163C00056A25F001050562836921F00A0123F092
:10164C00F00343EA06130A4383610262836823F0C2
:10165C00700343F05703836011E0B3F5805F0ED045
:10166C00B3F5005F0DD0702BCCD1CB68D1E9012143
:10167C00FFF79EFF2268936843F077039360002284
:10168C00C0E7CB68D1E90121FFF792FF226893688C
:10169C0043F48043F2E74D68CE68016A21F01001F3
:1016AC0001628269036A22F4704223F0A00343EAC8
:1016BC00051342EA063282610362836823F07003E9
:1016CC0043F06703C7E74A68CE68016A056A25F0EC
:1016DC0001050562836921F00A0123F0F00343EA56
:1016EC0006130A4383610262836823F0700343F09C
:1016FC004703B0E71A468BE78800FEFF38B50F4B5F
:10170C000546187808B9012038BD0D4A4FF47A7394
:10171C00B3FBF0F31068B0FBF3F0FEF757FF044691
:10172C000028F0D10F2DEED8024629464FF0FF309D
:10173C00FEF70CFF034B20461D60E5E7040000207C
:10174C00000000200800002010B50320FEF7ECFE7E
:10175C000020FFF7D3FF044618B9FEF729FE2046F8
:10176C0010BD0124FBE70000034A044B11681B78F1
:10177C000B441360704700BFD00000200400002011
:10178C00014B1868704700BFD000002038B50446E4
:10179C00FFF7F6FF631C1CBF054B1B78054618BFF3
:1017AC00E418FFF7EDFF431BA342FAD338BD00BF8B
:1017BC000400002000B5ADF5037D0A494FF400721A
:1017CC0002A800F04FF800210091802302AA0648DD
:1017DC00FEF740FF0548FFF75BFE0DF5037D5DF856
:1017EC0004FB00BFB418000828000020840000206F
:1017FC0010B5094C08212046FFF7F3F94FF47A7025
:10180C00FFF7C4FF20460821FFF7EBF9BDE81040B5
:10181C006420FFF7BBBF00BF0004004870B50D4D3E
:10182C000D4C641BA4100026A64209D10B4D0C4C88
:10183C0000F02EF8641BA4100026A64205D170BD42
:10184C0055F8043B98470136EEE755F8043B9847AA
:10185C000136F2E7F41A0008F41A0008F41A00082A
:10186C00F81A00080A44914200F1FF3300D1704786
:10187C0010B511F8014B03F8014F9142F9D110BD8D
:10188C0002440346934200D1704703F8011BF9E769
:10189C00F8B500BFF8BC08BC9E467047F8B500BF51
:0818AC00F8BC08BC9E46704721
:1018B4000008000065080000CA0800002E090000A6
:1018C40092090000F5090000560A0000B60A00005B
:1018D400150B0000710B0000CC0B0000240C000061
:1018E400790C0000CB0C00001B0D0000670D0000FC
:1018F400B00D0000F60D0000370E0000750E00005C
:10190400AF0E0000E40E0000150F0000420F0000AF
:101914006A0F00008E0F0000AD0F0000C70F00001B
:10192400DC0F0000EC0F0000F70F0000FE0F0000BA
:10193400FF0F0000FB0F0000F20F0000E50F000096
:10194400D20F0000BA0F00009E0F00007D0F0000B0
:10195400570F00002C0F0000FD0E0000CA0E0000FF
:10196400920E0000570E0000170E0000D30D000069
:101974008C0D0000420D0000F40C0000A30C0000CC
:101984004F0C0000F80B00009F0B0000430B0000FD
:10199400E60A0000870A0000260A0000C4090000C5
:1019A40060090000FC0800009708000032080000ED
:1019B400CD07000068070000030700009F06000031
:1019C4003B060000D9050000780500001905000059
:1019D400BC0400006004000007040000B003000021
:1019E4005C0300000B030000BD0200007302000052
:1019F4002C020000E8010000A80100006D010000B5
:101A04003501000002010000D3000000A80000001E
:101A14008200000061000000450000002D0000006D
:101A24001A0000000D000000040000000000000087
:101A34000100000008000000130000002300000063
:101A44003800000052000000710000009500000002
:101A5400BD000000EA0000001B010000500100006E
:101A64008A010000C8010000090200004F020000C2
:101A740098020000E4020000340300008603000022
:101A8400DB030000330400008E040000EA040000BD
:101A940049050000A90500000A0600006D060000C3
:101AA400D1060000350700009A070000FF07000078
:101AB40000000000000000000102030406070809FA
:101AC400A0860100400D0300801A060000350C00BA
:101AD40040420F0080841E0000093D0000127A007D
:101AE4000024F40000366E010048E801006CDC02BA
:041AF400B101000834
:041AF8008D01000854
:0C1AFC0000093D00010000001000000087
:04000005080004E10A
:00000001FF
